{
  "contractName": "Warranty",
  "abi": [
    {
      "inputs": [],
      "stateMutability": "nonpayable",
      "type": "constructor"
    },
    {
      "inputs": [
        {
          "internalType": "uint256",
          "name": "",
          "type": "uint256"
        }
      ],
      "name": "details",
      "outputs": [
        {
          "internalType": "string",
          "name": "productName",
          "type": "string"
        },
        {
          "internalType": "string",
          "name": "serialNumber",
          "type": "string"
        },
        {
          "internalType": "string",
          "name": "conditionsLink",
          "type": "string"
        },
        {
          "internalType": "uint16",
          "name": "transactionAllowed",
          "type": "uint16"
        },
        {
          "internalType": "string",
          "name": "imgeUrl",
          "type": "string"
        }
      ],
      "stateMutability": "view",
      "type": "function",
      "constant": true
    },
    {
      "inputs": [],
      "name": "owner_id",
      "outputs": [
        {
          "internalType": "address",
          "name": "",
          "type": "address"
        }
      ],
      "stateMutability": "view",
      "type": "function",
      "constant": true
    },
    {
      "inputs": [],
      "name": "trr",
      "outputs": [
        {
          "internalType": "uint256",
          "name": "",
          "type": "uint256"
        }
      ],
      "stateMutability": "view",
      "type": "function",
      "constant": true
    },
    {
      "inputs": [
        {
          "internalType": "address",
          "name": "transfer_id",
          "type": "address"
        },
        {
          "internalType": "uint256",
          "name": "_time",
          "type": "uint256"
        }
      ],
      "name": "transfer",
      "outputs": [],
      "stateMutability": "nonpayable",
      "type": "function"
    },
    {
      "inputs": [
        {
          "internalType": "string",
          "name": "_productName",
          "type": "string"
        },
        {
          "internalType": "string",
          "name": "_serialNumber",
          "type": "string"
        },
        {
          "internalType": "string",
          "name": "_conditionsLink",
          "type": "string"
        },
        {
          "internalType": "uint16",
          "name": "_transactionAllowed",
          "type": "uint16"
        },
        {
          "internalType": "string",
          "name": "_imgeUrl",
          "type": "string"
        }
      ],
      "name": "addDetails",
      "outputs": [],
      "stateMutability": "nonpayable",
      "type": "function"
    },
    {
      "inputs": [
        {
          "internalType": "uint256",
          "name": "t",
          "type": "uint256"
        }
      ],
      "name": "extend_warrenty",
      "outputs": [],
      "stateMutability": "nonpayable",
      "type": "function"
    },
    {
      "inputs": [],
      "name": "Remaining_Time",
      "outputs": [],
      "stateMutability": "nonpayable",
      "type": "function"
    },
    {
      "inputs": [],
      "name": "buy",
      "outputs": [],
      "stateMutability": "nonpayable",
      "type": "function"
    }
  ],
  "bytecode": "0x6080604052600080556000600360146101000a81548160ff0219169083151502179055506000600360156101000a81548160ff0219169083151502179055506001600360166101000a81548160ff02191690831515021790555034801561006557600080fd5b5033600160006101000a81548173ffffffffffffffffffffffffffffffffffffffff021916908373ffffffffffffffffffffffffffffffffffffffff16021790555060016000546100b691906100d4565b6000819055506064426100c991906100d4565b600281905550610163565b60006100df8261012a565b91506100ea8361012a565b9250827fffffffffffffffffffffffffffffffffffffffffffffffffffffffffffffffff0382111561011f5761011e610134565b5b828201905092915050565b6000819050919050565b7f4e487b7100000000000000000000000000000000000000000000000000000000600052601160045260246000fd5b610e05806101726000396000f3fe608060405234801561001057600080fd5b50600436106100885760003560e01c8063a6f2ae3a1161005b578063a6f2ae3a14610117578063a9059cbb14610121578063edd324c41461013d578063f9f3fe7c1461014757610088565b806316ce51021461008d5780638322d150146100a95780638f5ebf71146100c5578063a005ec7a146100e3575b600080fd5b6100a760048036038101906100a2919061091c565b610165565b005b6100c360048036038101906100be91906109f3565b61029f565b005b6100cd610315565b6040516100da9190610a82565b60405180910390f35b6100fd60048036038101906100f891906109f3565b61033b565b60405161010e959493929190610a9d565b60405180910390f35b61011f61059f565b005b61013b600480360381019061013691906108e0565b610621565b005b61014561070a565b005b61014f610743565b60405161015c9190610b0c565b60405180910390f35b600160009054906101000a900473ffffffffffffffffffffffffffffffffffffffff1673ffffffffffffffffffffffffffffffffffffffff163373ffffffffffffffffffffffffffffffffffffffff16146101bf57600080fd5b6040518060a001604052808681526020018581526020018481526020018361ffff168152602001828152506004600080548152602001908152602001600020600082015181600001908051906020019061021a929190610796565b506020820151816001019080519060200190610237929190610796565b506040820151816002019080519060200190610254929190610796565b5060608201518160030160006101000a81548161ffff021916908361ffff1602179055506080820151816004019080519060200190610294929190610796565b509050505050505050565b600160009054906101000a900473ffffffffffffffffffffffffffffffffffffffff1673ffffffffffffffffffffffffffffffffffffffff163373ffffffffffffffffffffffffffffffffffffffff16146102f957600080fd5b806002600082825461030b9190610ba4565b9250508190555050565b600360009054906101000a900473ffffffffffffffffffffffffffffffffffffffff1681565b600460205280600052604060002060009150905080600001805461035e90610cba565b80601f016020809104026020016040519081016040528092919081815260200182805461038a90610cba565b80156103d75780601f106103ac576101008083540402835291602001916103d7565b820191906000526020600020905b8154815290600101906020018083116103ba57829003601f168201915b5050505050908060010180546103ec90610cba565b80601f016020809104026020016040519081016040528092919081815260200182805461041890610cba565b80156104655780601f1061043a57610100808354040283529160200191610465565b820191906000526020600020905b81548152906001019060200180831161044857829003601f168201915b50505050509080600201805461047a90610cba565b80601f01602080910402602001604051908101604052809291908181526020018280546104a690610cba565b80156104f35780601f106104c8576101008083540402835291602001916104f3565b820191906000526020600020905b8154815290600101906020018083116104d657829003601f168201915b5050505050908060030160009054906101000a900461ffff169080600401805461051c90610cba565b80601f016020809104026020016040519081016040528092919081815260200182805461054890610cba565b80156105955780601f1061056a57610100808354040283529160200191610595565b820191906000526020600020905b81548152906001019060200180831161057857829003601f168201915b5050505050905085565b6105a7610749565b1561061f57600360169054906101000a900460ff161561061e5733600360006101000a81548173ffffffffffffffffffffffffffffffffffffffff021916908373ffffffffffffffffffffffffffffffffffffffff1602179055506000600360166101000a81548160ff0219169083151502179055505b5b565b600160009054906101000a900473ffffffffffffffffffffffffffffffffffffffff1673ffffffffffffffffffffffffffffffffffffffff163373ffffffffffffffffffffffffffffffffffffffff161461067b57600080fd5b60001515600360159054906101000a900460ff16151514156107065781600360006101000a81548173ffffffffffffffffffffffffffffffffffffffff021916908373ffffffffffffffffffffffffffffffffffffffff16021790555080426106e49190610ba4565b6002819055506001600360156101000a81548160ff0219169083151502179055505b5050565b60004260025461071a9190610bfa565b1115610739574260025461072e9190610bfa565b600081905550610741565b600080819055505b565b60005481565b6000804260025461075a9190610bfa565b11156107695760019050610776565b610771610779565b600090505b90565b6000600360146101000a81548160ff021916908315150217905550565b8280546107a290610cba565b90600052602060002090601f0160209004810192826107c4576000855561080b565b82601f106107dd57805160ff191683800117855561080b565b8280016001018555821561080b579182015b8281111561080a5782518255916020019190600101906107ef565b5b509050610818919061081c565b5090565b5b8082111561083557600081600090555060010161081d565b5090565b600061084c61084784610b58565b610b27565b90508281526020810184848401111561086457600080fd5b61086f848285610c78565b509392505050565b60008135905061088681610d8a565b92915050565b600082601f83011261089d57600080fd5b81356108ad848260208601610839565b91505092915050565b6000813590506108c581610da1565b92915050565b6000813590506108da81610db8565b92915050565b600080604083850312156108f357600080fd5b600061090185828601610877565b9250506020610912858286016108cb565b9150509250929050565b600080600080600060a0868803121561093457600080fd5b600086013567ffffffffffffffff81111561094e57600080fd5b61095a8882890161088c565b955050602086013567ffffffffffffffff81111561097757600080fd5b6109838882890161088c565b945050604086013567ffffffffffffffff8111156109a057600080fd5b6109ac8882890161088c565b93505060606109bd888289016108b6565b925050608086013567ffffffffffffffff8111156109da57600080fd5b6109e68882890161088c565b9150509295509295909350565b600060208284031215610a0557600080fd5b6000610a13848285016108cb565b91505092915050565b610a2581610c2e565b82525050565b6000610a3682610b88565b610a408185610b93565b9350610a50818560208601610c87565b610a5981610d79565b840191505092915050565b610a6d81610c40565b82525050565b610a7c81610c6e565b82525050565b6000602082019050610a976000830184610a1c565b92915050565b600060a0820190508181036000830152610ab78188610a2b565b90508181036020830152610acb8187610a2b565b90508181036040830152610adf8186610a2b565b9050610aee6060830185610a64565b8181036080830152610b008184610a2b565b90509695505050505050565b6000602082019050610b216000830184610a73565b92915050565b6000604051905081810181811067ffffffffffffffff82111715610b4e57610b4d610d4a565b5b8060405250919050565b600067ffffffffffffffff821115610b7357610b72610d4a565b5b601f19601f8301169050602081019050919050565b600081519050919050565b600082825260208201905092915050565b6000610baf82610c6e565b9150610bba83610c6e565b9250827fffffffffffffffffffffffffffffffffffffffffffffffffffffffffffffffff03821115610bef57610bee610cec565b5b828201905092915050565b6000610c0582610c6e565b9150610c1083610c6e565b925082821015610c2357610c22610cec565b5b828203905092915050565b6000610c3982610c4e565b9050919050565b600061ffff82169050919050565b600073ffffffffffffffffffffffffffffffffffffffff82169050919050565b6000819050919050565b82818337600083830152505050565b60005b83811015610ca5578082015181840152602081019050610c8a565b83811115610cb4576000848401525b50505050565b60006002820490506001821680610cd257607f821691505b60208210811415610ce657610ce5610d1b565b5b50919050565b7f4e487b7100000000000000000000000000000000000000000000000000000000600052601160045260246000fd5b7f4e487b7100000000000000000000000000000000000000000000000000000000600052602260045260246000fd5b7f4e487b7100000000000000000000000000000000000000000000000000000000600052604160045260246000fd5b6000601f19601f8301169050919050565b610d9381610c2e565b8114610d9e57600080fd5b50565b610daa81610c40565b8114610db557600080fd5b50565b610dc181610c6e565b8114610dcc57600080fd5b5056fea26469706673582212208474f8a9b256090036beb6b667cc5409a0e27a4cc739a5df5b757bf4a156c99c64736f6c63430008000033",
  "immutableReferences": {},
  "source": "// SPDX-License-Identifier: MIT\npragma solidity ^0.8.0;\n\ncontract Warranty {\n    uint256 public trr = 0;\n\n    address internal retailer_id;\n    uint256 internal warrantyPeriod;\n    address public owner_id;\n    bool internal not_burnt = false;\n    bool internal transfered = false;\n    bool internal not_bought = true;\n\n    struct tokkenSample {\n        string productName;\n        string serialNumber;\n        string conditionsLink;\n        uint16 transactionAllowed;\n        string imgeUrl;\n    }\n\n    constructor() {\n        retailer_id = msg.sender;\n        trr = trr + 1;\n        warrantyPeriod = block.timestamp + 100;\n    }\n\n    modifier retailer(){\n        require(msg.sender == retailer_id);\n        _;\n    }\n\n    modifier owner(){\n        require(msg.sender == owner_id && is_valid() && not_burnt);\n        _;\n    }\n\n    function transfer(address transfer_id, uint256 _time) public retailer{\n        if(transfered==false){\n            owner_id = transfer_id;\n            warrantyPeriod = block.timestamp + _time;\n            transfered = true;\n        }\n    }\n\n    mapping(uint => tokkenSample) public details;\n\n    function addDetails(string memory _productName,\n        string memory _serialNumber,\n        string memory _conditionsLink,\n        uint16 _transactionAllowed,\n        string memory _imgeUrl) public retailer {\n        details[trr] = tokkenSample(_productName, _serialNumber,\n            _conditionsLink, _transactionAllowed, _imgeUrl);\n    }\n\n    function extend_warrenty(uint256 t) public retailer{\n        warrantyPeriod += t;\n    }\n\n    function Remaining_Time() public {\n        if(warrantyPeriod-block.timestamp > 0){\n            trr = warrantyPeriod-block.timestamp;\n        }else{\n            trr = 0;\n        }\n    }\n\n    function buy() public {\n        if(is_valid()){\n            if (not_bought){\n                owner_id = msg.sender;\n                not_bought = false;\n            }\n        }\n    }\n\n\n    function is_valid() internal returns(bool){\n        if(warrantyPeriod-block.timestamp > 0){\n            return true;\n        }else{\n            burn();\n            return false;\n        }\n    }\n\n    function burn() internal{\n        not_burnt = false;\n    }\n\n}",
  "sourcePath": "C:\\Users\\rnerd\\Desktop\\Flipkart\\nft_warranty\\src\\contracts\\Warranty.sol",
  "compiler": {
    "name": "solc",
    "version": "0.8.0+commit.c7dfd78e.Emscripten.clang"
  },
  "schemaVersion": "3.4.8",
  "updatedAt": "2022-07-31T04:41:27.464Z",
  "networkType": "ethereum",
  "devdoc": {
    "kind": "dev",
    "methods": {},
    "version": 1
  },
  "userdoc": {
    "kind": "user",
    "methods": {},
    "version": 1
  }
}